S00B00002020202020202020F4
S11380008E03FF8600B7100186FFB710038600B702
S11380101002CC302CB7102BF7102D8600B7102C83
S113802086FEB710098604B7103C860006BD809F03
S1138030863F970C960D27FD7F000DB610279717E6
S11380407F1027BD81B81809188F9719D71A188F70
S11380509619D61ABD821ABD814FBD813FBD81D408
S11380604FD613BD822ABD816EBD813F4FD614BD4C
S1138070822ABD816EBD813F4FD61DBD822ABD813E
S11380806EBD813F4FD61EBD822ABD816EBD813F2C
S11380904FD617BD822ABD816EBD819C7E80347F00
S11380A0000D7F100286F49718CE10241C00400E99
S11380B0CE10261C00507F10278610971B866097D1
S11380C01C18CE106086169715865397167F0019D4
S11380D07F001A399619D61A188F1808188FBD827E
S11380E01ABD814FBD813F961BD61C188F18084FAF
S11380F018E600BD822ABD816EBD813F18084F1865
S1138100E600BD822ABD816EBD813F18084F18E686
S113811000BD822ABD816EBD813F18084F18E6005C
S1138120BD822ABD816EBD813F18084F18E600BD8F
S1138130822ABD816E188F971BD71CBD819C39CEB6
S1138140102EB6102E862CB7102F1F0080FC39CEAF
S1138150102EB6102E960E8B30B7102F1F0080FCF9
S1138160B6102E960F8B30B7102F1F0080FCCE1048
S11381702EB6102E96108B30B7102F1F0080FCB631
S1138180102E96118B30B7102F1F0080FCB6102EC6
S113819096128B30B7102F1F0080FC39CE102EB6EC
S11381A0102E860AB7102F1F0080FCB6102E860DE5
S11381B0B7102F1F0080FC39CE102EB6102E960C4F
S11381C0B7102F1F0080FCB6102E863AB7102F1F51
S11381D00080FC39CE10308680B710398610B71075
S11381E0301F0080FCF61031D7138680B710398613
S11381F011B710301F0080FCF61032D7148612B766
S113820010301F0080FCF61033D71D8613B71030D2
S11382101F0080FCF61034D71E39CE2710028FD7EA
S11382200E8FCE03E8028FD70F8FCE64028FD71044
S10E82308FCE0A028FD7118FD71239AE
S10EF10036B6102EB6102F970C323BD1
S113F110363CCE10251C00407A0018270432383BB8
S111F12086FF970D86F497187C100232383B58
S105FFD6F10034
S105FFF0F1100A
S105FFFE80007D
S90380007C
